:030000000209E012
:0C09E000787FE4F6D8FD75815A020A27E2
:100E3B00496E697469616C697A696E672E2E2E0032
:100E4B00436164696C6C6163205265616479210054
:0E0E5B005452657472790048526574727900C1
:10053B001210507F647E00120F247BFF7A0E793BE2
:10054B007D0F120F607F647E00120F247BFF7A0EEB
:10055B00794B7D0F120F601210E2500DC204121076
:10056B00AE1210E51203CA80EE1210D35005120A18
:10057B00DB80E41210BE40030206191210C44003C4
:0C058B000206191210CDEF6003020619E1
:10059700F52DC2051210957B007A0079221207D239
:1005A7007B007A0079227D05120A6C7B007A00793C
:1005B700221208927B007A0079227D05120A6C7557
:1005C7003D00753E00753F277B007A00792A1206A9
:1005D7001FEF7009052DE52DD3940340E2E52DD3D8
:1005E700940350157B007A00792A7D03120A6C7BED
:1005F700007A0079277D0380137BFF7A0E795B7D74
:0F06070006120A6C7BFF7A0E79627D06120A6C6E
:09061600020562120F9602056252
:100B4200E4F558751701755908E55825E0F558E49C
:100B5200F55720B20AAF570557EFC3941440F3E597
:100B620057D3941440028029E4F557121022121030
:100B72002212102230B21F055830B20EAF5705575D
:100B8200EFC394145004D2B280EFE557D3941440CB
:100B920005E4F517FF221559E559D3940050AAAF81
:010BA20058FA
:010BA300222F
:0606F9008B488A49894A82
:1006FF00E4F554F555F556C2AFC2B27F14FE120F92
:10070F0024D2B21210221210221210221210221210
:10071F00102230B2030207CD20B20AAF560556EFB2
:10072F00C3941440F3E556D3941440028019E4F5B2
:10073F0056D2B230B20AAF560556EFC3941440F3F7
:10074F00E556C394144007D2AFD2B27F0022E4F52E
:10075F0055120B4274122555F8A607E5177006D2ED
:10076F00AFD2B2FF22E5556404600A74122555F822
:10077F00E62554F5540555E555C3940540D3E55486
:10078F006516703AAB4BAA4CA94D8512F012037740
:10079F00AB51AA52A953E48513F0120377AB48AAC1
:1007AF0049A94AE48514F0120377AB4EAA4FA9501A
:1007BF00E48515F0120377D2AFD2B27F0122D2AF08
:0207CF007F00A9
:0107D1002205
:06061F008B3A8A3B893C86
:10062500754B00754C00754D44754E00754F007542
:1006350050427551007552007553467B007A00791A
:10064500401206F9EF640160030206F6AB3AAA3BD5
:10065500A93C74541202B8AE40AF417C007D0A1229
:100665000341742F2FF58274103EF583E493AB3A62
:10067500AA3BA93C9000011202CAAE40AF417C00E2
:100685007D0A120341742F2DF58274103CF583E425
:1006950093AB3AAA3BA93C9000021202CAAB3DAA11
:1006A5003EA93F74481202B8AE44AF457C007D0AAE
:1006B500120341742F2FF58274103EF583E493AB3A
:1006C5003DAA3EA93F9000011202CAAE44AF457C47
:1006D500007D0A120341742F2DF58274103CF583B9
:1006E500E493AB3DAA3EA93F9000021202CA7F01E6
:0306F500227F0061
:0106F80022DF
:100FC700C2A08F807F057E00120F24D2A17F057EED
:070FD70000120F24C2A12249
:100FDE00D2A08F807F057E00120F24D2A17F057EC6
:070FEE0000120F24C2A12232
:10100C00C2A17F38120FC77F0C120FC77F06120FB9
:06101C00C77F01020FC7AF
:05001D007F01020FC786
:05108B007FC0020FC749
:080DCC008B3E8A3F89408D41F6
:100DD400E4F542E542C395415026E542C3942050D0
:100DE4001FAB3EAA3FA94085428275830012028B45
:100DF400FF120FDEE542B40F0312108B054280D3BD
:010E040022CB
:100F60008B3A8A3B893C8D3D12001D7F80120FC752
:0B0F7000AB3AAA3BA93CAD3D020DCC02
:0B102F003031323334353637383900A9
:0C0F0300C101C10302180000C102C100BE
:100F2400E4FDFCC3ED9FEC9E5015E4FBFA0BBB0003
:0F0F3400010AEB647C4A70F50DBD00010C80E4EE
:010F4300228B
:0C102200155A155A155A155A155A155A28
:01102E00229F
:0310BB00A201226D
:05109000A206920122FE
:05109500A205920322F8
:0310BE00A2032268
:05109A00A204920222F5
:0310C100A2022266
:05109F00A204920022F2
:0310C400A2002265
:08000300E4F5C8F5CDF5CC22AF
:100C5A008B3F8A408941120003AB3FAA40A941E475
:100C6A00F5F012037712106D30A5FDD2CA20A5FD4A
:100C7A00C2CAAFCDEFFEADCC7C00E42DFDEC3EFC4C
:100C8A00E41201D17B177AD979EE783F120026E473
:100C9A00FBFA79C8784212012F12020AAB3FAA4026
:080CAA00A941EE8FF00203776F
:08106D00D2A4121022C2A42239
:100CB2008B3F8A408941120003AB3FAA40A941E41D
:100CC200F5F012037712107530A7FDD2CA20A7FDE6
:100CD200C2CAAFCDEFFEADCC7C00E42DFDEC3EFCF4
:100CE200E41201D17B177AD979EE783F120026E41B
:100CF200FBFA79C8784212012F12020AAB3FAA40CE
:080D0200A941EE8FF002037716
:08107500D2A6121022C2A6222D
:0607D2008B3A8A3B893CD2
:1007D8007B007A00793D120C5AAB3AAA3BA93C74CB
:1007E800441202B8AE3DAF3E7C037DE81202EC74C1
:1007F8002F2FF58274103EF583E493AB3AAA3BA9F8
:100808003C9000011202CAAE3DAF3E7C037DE81267
:1008180002EC7E007F64CFCDCFCECCCE1202EC743A
:100828002F2FF58274103EF583E493AB3AAA3BA9C7
:100838003C9000021202CAAE3DAF3E7C007D6412BD
:1008480002EC7E007F0ACFCDCFCECCCE1202EC7464
:100858002F2FF58274103EF583E493AB3AAA3BA997
:100868003C9000031202CAAE3DAF3E7C007D0A12E6
:1008780002EC742F2DF58274103CF583E493AB3AA7
:0A088800AA3BA93C9000040202CA3A
:060892008B3A8A3B893C11
:100898007B007A00793D120CB2AB3AAA3BA93C74B2
:1008A800641202B8AE3DAF3E7C037DE81202EC74E0
:1008B8002F2FF58274103EF583E493AB3AAA3BA937
:1008C8003C9000011202CAAE3DAF3E7C037DE812A7
:1008D80002EC7E007F64CFCDCFCECCCE1202EC747A
:1008E8002F2FF58274103EF583E493AB3AAA3BA907
:1008F8003C9000021202CAAE3DAF3E7C007D6412FD
:1009080002EC7E007F0ACFCDCFCECCCE1202EC74A3
:100918002F2FF58274103EF583E493AB3AAA3BA9D6
:100928003C9000031202CAAE3DAF3E7C007D0A1225
:1009380002EC742F2DF58274103CF583E493AB3AE6
:0A094800AA3BA93C9000040202CA79
:100F4400438920758DFD758BFDD28E759850D2AF77
:0C0F5400D2ACC206121090C20402109A27
:080A6C008B3A8A3B893C8D3D69
:100A7400E4F53E1210C1505EC206121090C2ACC220
:100A8400997599243099FDC299D2AC1210BB50FBD0
:100A9400E53EC3953D5029C206121090C2ACAB3A54
:100AA400AA3BA93CAF3E053E8F8275830012028BA0
:100AB400F5993099FDC299D2AC1210BB40D280F99D
:100AC400C206121090C2AC7599233099FDC299D216
:060AD400AC1210BB50FB48
:010ADA0022F9
:100D55005475726E696E6720526967687421005414
:100D650075726E696E67204C656674210042616319
:100D75006B776172642100466F727761726421003E
:0D0D8500446574656374696E672E2E2E0040
:100F0F00010B00020F0000010E00C108C107011103
:040F1F0000010A00C3
:0F000E0043890143A882758CFF758AA3D28C2287
:100FF50012000E7F0B1210C77F0B1210CA7F7312DF
:071005000E057F7802103A8E
:0310C7008F0D2268
:0310CA008F0C2266
:100E0500EF24B4601F24FA602024FD600F24E26003
:100E15001F242F7020750EAAD2048005750E55C2A9
:100E2500040210A9750E668003750E9985090822BE
:060E3500E4F50EF50822B1
:0310CD00AF0E2241
:0B103A008F091210D350031210B322D4
:0310D000AF092243
:0410B3008509082281
:100F9600E50E6014E508D39509500405088002158E
:090FA600087F027E00120F2422D4
:07107D00E50D6002150D22D4
:09105B00E50D64196002050D2287
:07108400E50C6002150C22CF
:09106400E50C64196002050C2280
:03000B0002095295
:10095200C0E0C0F0C083C082C0D075D000C000C06B
:1009620001C002C003C004C005C006C007758CFFE9
:10097200758AA3050BE50BC3950D5004D2A3800223
:10098200C2A3E50BC3950C5004D2A28002C2A2E519
:100992000BC395085005850E908003759000E50BFA
:1009A200C394C8401E750B000510E5107002050FB8
:1009B20094DCE50F9405400BD205121095750F00DB
:1009C200751000D007D006D005D004D003D002D0D5
:0E09D20001D000D0D0D082D083D0F0D0E0325F
:100FAF008B308A3189321210D6AB30AA31A9325028
:080FBF0003020CB2120C5A22CD
:100ADB00E4F52EF52FFB7A00792E120FAFD3E52F0D
:100AEB009420E52E940040201210B71210DFBF01A6
:100AFB0008120F7B120BA4800C1210DFBF02061220
:100B0B000F7B120BFF020EDE1210D912104550266E
:100B1B007F73120E051210DFEF7003020E691210B5
:100B2B00DFBF0106120F7B020E911210DFBF020610
:060B3B00120F7B120EB93F
:010B41002291
:100BA4001210D08F307F7812103A1210D67BFF507B
:100BB4000D7A0D79557D0E120F607F52800B7A0DE0
:100BC40079647D0D120F607F4C120E057F787E00D4
:100BD400120F24AF3012103A1210D67BFF500D7A48
:100BE4000D79727D09120F607F44800B7A0D797C38
:0A0BF4007D08120F607F55120E05F8
:010BFE0022D4
:100BFF001210D08F307F7812103A1210D67BFF5020
:100C0F000D7A0D79647D0D120F607F4C800B7A0D7C
:100C1F0079557D0E120F607F52120E057F787E0080
:100C2F00120F24AF3012103A1210D67BFF500D7AEC
:100C3F000D79727D09120F607F44800B7A0D797CDC
:0A0C4F007D08120F607F55120E059C
:010C59002278
:100E69007BFF7A0D79857D0C120F601210D6500721
:100E79007F051210CA80057F111210C77F01121059
:080E8900DC7F7B7E00020F24D8
:100E91007BFF7A0D79857D0C120F601210D65007F9
:100EA1007F161210CA80057F051210C77F0212102B
:080EB100DC7F7B7E00020F24B0
:100F7B001210D67F0B50051210CA80031210C7E453
:0B0F8B00FF1210DC7F7B7E00020F24B1
:100EB9001210D67BFF500D7A0D797C7D08120F60D8
:100EC9007F55800B7A0D79727D09120F607F44126C
:050ED9000E050210B33C
:100EDE001210D67BFF400D7A0D797C7D08120F60C3
:100EEE007F55800B7A0D79727D09120F607F441247
:050EFE000E050210B317
:0510A400A204920822E5
:0310D300A208224E
:0510A900A204920722E1
:0310D600A207224C
:0310D900051122DC
:0410B700E4F5112229
:0B104500E511C394034002D322C32234
:0310DC008F0A2256
:0310DF00AF0A2233
:100D92004C6576656C2031004C6576656C203200BE
:100DA2004C6576656C2033004C6576656C203400AA
:100DB2004C6576656C2035004D4F4B00545265747E
:0A0DC20072790048526574727900DE
:0B105000C209120F44120FF502100C31
:1003CA00EF1203A4052723052B24044F2B044C2DDD
:1003DA00043F31044332044733045841046542045C
:1003EA007243042644047F45048C4604524A042678
:1003FA004C04A44E05224F053050042652051E53C4
:10040A00049C5404265504366604556A04326C0466
:10041A00CB6E043A720428730000053A8007C204BE
:10042A001210A47F73020E057F1180067F0B8002D3
:10043A007F050210C77F0580067F0B80027F1602A8
:10044A0010CA02107D02105B0210840210647F2819
:10045A0012103A7BFF7A0D799280327F5012103A4D
:10046A007BFF7A0D799A80257F7812103A7BFF7A82
:10047A000D79A280187FA012103A7BFF7A0D79AA13
:10048A00800B7FC812103A7BFF7A0D79B27D070282
:10049A000F607BFF7A0D79BA80607B007A00792E33
:1004AA001207D27B007A00792E7D05120A6C7B0036
:1004BA007A00792E1208927B007A00792E7D0580C7
:1004CA0050E4F539753D00753E00753F337B007A7F
:1004DA0000793612061FEF70090539E539D39403FE
:1004EA0040E2E539D3940350157B007A0079367DD2
:1004FA0003120A6C7B007A0079337D0380137BFF39
:10050A007A0D79BE7D06120A6C7BFF7A0D79C57D5C
:10051A0006020A6CD2048002C20402109AD2048033
:10052A0002C20402109FD2041210A47F7812103A59
:01053A00229E
:0510AE00A204920922DA
:0310E200A209223E
:0310E500AF1A221D
:03002300020D0AC1
:100D0A00C0E0C0F0C083C082C0D075D000C000C0AF
:100D1A0001C002C003C004C005C006C007C298854E
:100D2A00991AE51AB42607D2061210908002D2093F
:100D3A00D007D006D005D004D003D002D001D0000D
:0B0D4A00D0D0D082D083D0F0D0E032B7
:10002600EC4D6011E8497017ED33EC3304600DE4D4
:10003600FCFFFEFD22E933E8330470F80202761273
:10004600024158046009E4CC248150062850090274
:10005600028028400302027DC0E0EB4A7044B9806A
:1000660006D0E0FB02026CEF4E701CBD8008EBFF71
:10007600EAFEE9FD80EBE98DF0A4FEE5F002010F52
:10008600E9CDF9EAFEEBFFEF89F0A4FCE5F0CE89B5
:10009600F0A42EFFE435F0CD89F0A42DFEE435F072
:1000A6008067EF4E7005BD80D780C3EF8BF0A4ACA0
:1000B600F0EE8BF0A42CFCE435F0F8EF8AF0A42CDB
:1000C600E5F038FCE433CB8DF0A42CFCE5F03BF8EE
:1000D600EE8AF0A42CFCE5F038F8E433CF89F0A4DE
:1000E6002CFCE5F038CF3400CE89F0A42FFFE5F0E4
:1000F6003EFEE433C98DF0A42EFEE5F039CD8AF03C
:10010600A42FFFE5F03EFEE43DFD33D0E0FB5007B3
:100116000BBB000F020280EC2CFCEF33FFEE33FE2C
:06012600ED33FD0202585A
:10012C00020280EC5D046005E8590470030202765B
:10013C00120241580460F6EC4860F2EC7004FDFECB
:10014C00FF22C860DB2481C85009C39860025006A6
:10015C0002027D9850CAF582E9294B4A7005AB82A0
:10016C0002026C75F0007C1A7880C3EF9BEE9AED5E
:10017C0099400DC3EF9BFFEE9AFEED99FDE842F01E
:10018C00DC23ACF0D0E0FFD0E0FED0E0FDAB822071
:10019C00E7101BEB60BAEC2CFCEF33FFEE33FEEDFB
:1001AC0033FD020258E803F830E705C0F075F000A3
:1001BC00EF2FFFEE33FEED33FD40B830E7C280AADF
:1001CC0075F020800E75F010800575F0087D007EAE
:1001DC00007F003392D530D503120396EC334010D8
:1001EC00EF33FFEE33FEED33FDEC33FCD5F0ED22B7
:0E01FC00E5F0247EA2D513CC92E7CDCEFF22F3
:10020A00EDD2E7CD33EC3392D524814006E4FFFEEC
:10021A00FDFC22FCE4CFCECDCC24E0501174FF804B
:10022A00EDC3CC13CCCD13CDCE13CECF13CF0470E8
:07023A00F030D5DE0203964F
:10024100E9D2E7C933E833F892D5EDD2E7CD33EC03
:0702510033FC5002B2D5227C
:10025800EC30E7100FBF000C0EBE00080DBD000407
:100268000BEB6014A2D5EB13FCED92E7FD2274FFB3
:10027800FCFDFEFF22E480F8A2D574FF13FC7D800C
:03028800E480EF20
:1009EC0002053BE493A3F8E493A34003F68001F2E1
:1009FC0008DFF48029E493A3F85407240CC8C3330C
:100A0C00C4540F4420C8834004F456800146F6DFDA
:100A1C00E4800B0102040810204080900F03E47E58
:100A2C00019360BCA3FF543F30E509541FFEE493CF
:100A3C00A360010ECF54C025E060A840B8E493A396
:100A4C00FAE493A3F8E493A3C8C582C8CAC583CAC1
:100A5C00F0A3C8C582C8CAC583CADFE9DEE780BE79
:010F230000CD
:10028B00BB010CE58229F582E5833AF583E0225028
:10029B0006E92582F8E622BBFE06E92582F8E22272
:0D02AB00E58229F582E5833AF583E493228C
:1002B800BB010689828A83F0225002F722BBFE0125
:0202C800F3221F
:1002CA00F8BB010DE58229F582E5833AF583E8F06A
:1002DA00225006E92582C8F622BBFE05E92582C816
:0202EA00F222FE
:1002EC00BC000BBE0029EF8DF084FFADF022E4CCF6
:1002FC00F875F008EF2FFFEE33FEEC33FCEE9DECBF
:10030C00984005FCEE9DFE0FD5F0E9E4CEFD22ED04
:10031C00F8F5F0EE8420D21CFEADF075F008EF2F4E
:10032C00FFED33FD4007985006D5F0F222C398FD3F
:05033C000FD5F0EA22DC
:10034100C2D5EC30E709B2D5E4C39DFDE49CFCEED7
:1003510030E715B2D5E4C39FFFE49EFE1202ECC361
:10036100E49DFDE49CFC80031202EC30D507C3E45C
:060371009FFFE49EFE2246
:10037700BB010A89828A83F0E5F0A3F0225006F7D1
:0F03870009A7F01922BBFE06F3E5F009F31922CE
:0E039600C3E49FFFE49EFEE49DFDE49CFC2278
:1003A400D083D082F8E4937012740193700DA3A3E8
:1003B40093F8740193F5828883E4737402936860FC
:0603C400EFA3A3A380DFFC
:00000001FF
